:100000000C94EB3A1895189518951895189518951D
:100010001895189518951895189518951895189578
:100020001895189518951895189518951895189568
:100030001895189518951895189518951895189558
:100040000C943E1B189518950C947C070C94310861
:100050001895189518951895189518951895189538
:100060001895189518951895189518951895189528
:10007000189518950C94B33A1895189518951895E5
:100080001895189518951895189518951895189508
:10009000189518950101310EE30C01E80C01F20CE2
:1000A00001F70C01FC0C01010D01ED0C01060D0125
:1000B0000B0D01A80D01B00D01100D14B80D01BEFE
:1000C0000D01C40D5F320D010B0E02150D01190D4E
:1000D000011D0D01210D03250D069E0D086D0D025C
:1000E000310E03510D015F0D01ED0D06C70D01DA53
:1000F0000DFB1000016211EE10010511050811023F
:100100000B110F0E11011611FE01E81911FE02006C
:100110001C11FE02001F11FE02002211FE02002926
:1001200011FE06002C11012F110132110135110DA4
:100130003811013B110F3E11FE04E04111FE030096
:100140004411FE01004711FE07004A11FE02004D56
:1001500011105011015311015611015911ED5C118B
:10016000015F11FB000000B5320F009B324C32677B
:100170003273327332733273327332733273327357
:10018000327E327E32B532893200219700E0088318
:1001900011E09E010BE1CAD021960895219700E954
:1001A00008830AE00093B80011E09E010BE1BED085
:1001B0002196089523974091900350E060E070E00D
:1001C0000EED1AE00E94B902002399F0169A0EED86
:1001D0001AE00E94D40213E09E0102E1C5D0F89417
:1001E00043E050E09E010DE01BE00E94763C7894D5
:1001F00016982396089522970091910310E020E02D
:1002000030E048EE53E060E070E00E944E3BA80111
:10021000B90102EE1AE00E94B902002379F1179A9F
:1002200002EE1AE00E94D40212E09E0100E0C4D067
:10023000088110E1019F098102950F7010E0000E06
:10024000111E800120E030E040EA50E060E070E004
:100250000E944E3B012F122F053F21E012071CF098
:1002600004EF11E006C0043620E0120714F404E69F
:1002700010E00093030B1093040B17982296089537
:1002800006E800937A0008954091920350E060E000
:1002900070E006EE1AE00E94B902002309F445C09E
:1002A000169A06EE1AE00E94D4020091550B002324
:1002B000E1F100917A00102F16FDFBCF0091EA0AC0
:1002C000006600937C0000917A00006400937A003D
:1002D00000917A00102F16FDFBCF0091790010914C
:1002E000EA0A105039F01A9559F01A9579F01A95D2
:1002F00099F018C00093570B01E00093EA0A0895A3
:100300000093560B03E00093EA0A08950093580BFC
:1003100003E00093EA0A08950093590B00E000936C
:10032000EA0A089500E00093EA0A08950E94333C27
:100330002397B02FC901A12F00E008838E0164D05C
:100340000EE10983BA83AE0122E08E010F5F1F4FD9
:1003500072D0AE012A2F8C016ED08E0168D0088138
:100360002396E4E00C94443C0E94333C2397B02F46
:10037000C901A12F00E008838E0146D00EE1098358
:10038000BA83AE0122E08E010F5F1F4F54D08E0161
:100390003BD00FE10983AE0121E08E010F5F1F4FBB
:1003A0004AD0AE012A2F8C0167D08E0140D008813F
:1003B0002396E4E00C94443C0E94333C2397B02FF6
:1003C000C901A12F00E008838E011ED000E9098336
:1003D000BA83AE0122E08E010F5F1F4F2CD08E0139
:1003E00013D001E90983AE0121E08E010F5F1F4F99
:1003F00022D0AE012A2F8C013FD08E0118D0088167
:100400002396E4E00C94443C30E024EA2093BC00C2
:100410002091BC00422F47FD05C0232F322F33957A
:100420002D33B0F32091B900F8012083089504E939
:100430000093BC000895BD01D80117C00C91009332
:10044000BB00119604E80093BC0010E00091BC00D2
:10045000302F37FD06C0012F102F13950D33B0F349
:1004600020E00091B900FA010083022F202F2A9585
:10047000002321F7DB010895BD01D80117C004E86E
:100480000093BC0010E00091BC00302F37FD06C087
:10049000012F102F13950D33B0F320E00091BB0016
:1004A0000C9311960091B900FA010083022F202FBE
:1004B0002A95002331F0222311F304EC0093BC00B1
:1004C000E1CFDB0108959A938A93CAD283D20E9426
:1004D0004108002319F00E94F20802C00E94570848
:1004E0000E945C350E94DA1A0E94CE000E945B3A9C
:1004F0000E94741A0E9440010E94DA000E94440186
:100500000E94FB000E94831AE9E0FBE00081118158
:100510000F5F1F4F008311830091EB0A1091EC0ACB
:10052000C80101968093EB0A9093EC0A0D3D25E0FB
:10053000120710F309E319E00E943632013049F442
:10054000E9E0FBE0008111810F5F1F4F0083118301
:1005500012D1169800E112B1102712B904E014B3B9
:10056000102714BB00E010E00093EB0A1093EC0A94
:10057000C3CF0E94313C2801CA01DB010E94351B18
:10058000F2014081518162817381041B150B260B9E
:10059000370B80179107A207B30710F401E001C0E1
:1005A00000E0E6E00C94423CBA93AA93D8010E9482
:1005B000351B0D931D932D933C93A991B9910895EB
:1005C000980100E000E00BC010E0F901E00FF11F1E
:1005D000448110E0F801E65AF44F40830395F90195
:1005E0001381011788F300E010C010E0F801EA5908
:1005F000F44F208130E0F901E75AF44F208110E0F8
:10060000F801E150F54F20830395043070F308950D
:10061000F801E65AFF4F2081222321F421E00E94B5
:10062000963308952FE00E949633089524E00E94A7
:1006300096330E942A3708959A938A93C80121E03D
:100640008C010E9496338C010E94570E0E942A371B
:100650008991999108959A938A93C801FC01E65A69
:10066000FF4F0081013081F4F9010581002361F41D
:10067000F901068111E00E949F3525E08C010E945E
:10068000963302E00E94F5188991999108959A9302
:100690008A93C801FC01E65AFF4F0081013089F4BA
:1006A000F901068111E00E949F3522E08C010E9431
:1006B000963320E137E28C010E94520E02E00E9444
:1006C000F5188991999108959A938A93C801FC012C
:1006D000E65AFF4F0081013061F423E08C010E9453
:1006E000963320E137E28C010E94520E02E00E9414
:1006F000F51889919991089524E00E9496330E94FB
:100700002A3708959A938A93C801FC01E65AFF4F4D
:1007100000810130A9F4F9010581002389F4F90170
:10072000068111E00E949F3527E08C010E949633DC
:1007300020E137E28C010E94520E02E00E94F5187F
:10074000899199910895F801E65AFF4F408141300F
:1007500039F4F9012581222319F428E00E94963307
:100760000895F801E65AFF4F2081213019F429E05D
:100770000E94963308950091150B002319F000E0B4
:100780000093180B0091150B013021F41ED000933B
:10079000180B17C00091150B043021F48CD0009376
:1007A000180B0FC00091150B083021F4F3D0009303
:1007B000180B07C00091150B002319F004E00093FB
:1007C000180B00E00093150B08950E94333C84E25F
:1007D000A0E2B0E000E010E022E030E0AD0160E037
:1007E00070E0041B150B260B370BE1E1FBE04081A9
:1007F000518162817381041715072607370710F4AA
:1008000002E056C00091ED0A10E020E030E0E1E1A6
:10081000FBE040815181628173810417150726072F
:10082000370729F40091160B013009F040C044E26B
:1008300050E025EA30E009E11BE00E94973C6A2F76
:1008400049E15BE0E1E1FBE000811181228133813C
:100850000E94B609E1E1FBE0008190E0FC01EB5E63
:10086000F44F0083E1E1FBE01181012F90E0FC01F6
:10087000EA5EF44F0083E1E1FBE02281022F90E089
:10088000FC01E95EF44F0083E1E1FBE03381032FDB
:1008900090E0FC01E85EF44F0083E1E1FBE00081C1
:1008A0000093ED0A00E00093160B00E001C001E0A8
:1008B000E4E00C94443C0E94333C84E2A0E2B0E0CB
:1008C00000E010E10A1B1B0B20E030E0E1E1FBE05F
:1008D000408151816281738104171507260737070C
:1008E00010F402E054C00091ED0A10E020E030E086
:1008F000E1E1FBE0408151816281738104171507BA
:100900002607370721F40091160B0130F9F544E270
:1009100050E025EA30E009E11BE00E94973CAD0180
:1009200029E13BE0E1E1FBE00080118080010E94D1
:100930003A0AE1E1FBE0008190E0FC01EB5EF44F5C
:100940000083E1E1FBE01181012F90E0FC01EA5E10
:10095000F44F0083E1E1FBE02281022F90E0FC01F3
:10096000E95EF44F0083E1E1FBE03381032F90E087
:10097000FC01E85EF44F0083E1E1FBE000810093BD
:10098000ED0A00E00093160B00E001C001E0E4E096
:100990000C94443C8A9380E0E1E1FBE0008111810A
:1009A00022813381013040E1140740E0240740E018
:1009B000340710F002E00CC041E050E027E13BE0DA
:1009C000E1E1FBE00080118080010E941C0A082FF9
:1009D000899108950E94333C80E89EE3A0E0B0E056
:1009E00003E00093930300919303043140F40091DA
:1009F0009303002321F0009193030093B40320910B
:100A0000B40309E319E00E94843406E019E020E011
:100A100030E0EDEFFBE0008311832283338300910C
:100A2000B40310E020E030E0AC01BD010E944E3B79
:100A30004DE050E060E070E00E94753BC801D901D4
:100A40008C019D01C801D90181509040A040B04067
:100A5000012B022B032BA1F77198E4E00C94443C8A
:100A6000F89408E10093600000E0009360000FEF4D
:100A700002B90FE001B907E905B906EF04B903EFC0
:100A800008B90EE207B908EB0BB900E20AB903EFA7
:100A90000EB900E00DB900EF01BB00E400BB0BE1B3
:100AA00004BB04E003BB0FE000937E0003E000936F
:100AB0007F000FE002B90FEF01B90DB103640DB96A
:100AC0000EB10C7B0EB9169A00E80093610001E0AC
:100AD00000936100789408950E94313CE7972801C3
:100AE00000E0088300E010E020E030E00D831E838A
:100AF0002F8338870FEF1FEF0B831C830FE010E06D
:100B000009831A8380E02BC001E00A938E010F5FF6
:100B10001F4F1A930A938E01085F1F4F1A930A936F
:100B200050E0BD0141E0282F30E020503C4E09E369
:100B300019E00E945C0E4D915D916D917C9113972F
:100B4000FE013996082F10E0000F111F000F111F32
:100B5000E00FF11F40835183628373838395843058
:100B600098F29E01275E3F4F64E973E08901FB0123
:100B70004EE150E00E94083C09E319E00E947B34FA
:100B800010E00B8F1C8F09851A850D8F1E8F0D8528
:100B90001E850F8F18A309891A8909A31AA30D8925
:100BA0001E890BA31CA3569855985E9A5D9A01E086
:100BB0000093D80005EF401601E0500658F406E017
:100BC0000093E20004E40093E30005E20093E400F4
:100BD00000E042C000E085C01C811295107F110F1B
:100BE0002B81269526952695120F1093F7001B81D1
:100BF0001295107F110F1093F600FE017996202FA9
:100C000030E0220F331FE20FF31F11811295107F86
:100C1000110FFE017996202F30E0220F331FE20FD3
:100C2000F31F2081269526952695120F1093F30029
:100C3000FE017996202F30E0220F331FE20FF31FC1
:100C400010811295107F110F1093F2001091EF0098
:100C50001F7E1093EF0003950F30A0F5102F129513
:100C6000107F1093ED00EEEEF0E003C010E0108373
:100C7000319628EF30E0E217F307C0F310E004C02C
:100C800020E02093FA0013951830D0F30D3018F7B8
:100C90001091EF00106C1093EF00013009F09CCF21
:100CA0001A811295107F110F298126952695269578
:100CB000120F1093F70019811295107F110F1093E6
:100CC000F6009BCF00EB0093DB000FE70093DF0003
:100CD0000FEF0093DE000091D80002600093D8006F
:100CE00001E0E796E6E00C94423C0091EF0A109197
:100CF000F00A0093430B1093440B0091F10A1091FA
:100D0000F20A0093410B1093420B0091F30A1091E9
:100D1000F40A00933F0B1093400B0091F50A1091D9
:100D2000F60A0093450B1093460B0091EB0010E080
:100D30000093490B10934A0B0091EA0010E00093D6
:100D40004B0B10934C0B20914D0B30914E0B00919F
:100D5000D80010E02017310711F001E001C000E0D9
:100D60000091D90010E0E3E5FBE020813181202BE8
:100D7000312B208331830895F8940DE001C0039551
:100D80000F3050F4102F1295107F1093ED0010913A
:100D9000EF00107C112399F70F3008F048C002953E
:100DA000007F0093ED00F90101810295007F000FA3
:100DB000F9011081169516951695010F0093F30011
:100DC000F90100810295007F000F0093F20000916D
:100DD000EF000F7E0093EF00F9010281002329F05C
:100DE0000091F00004600093F000F901038110917C
:100DF000EF00102B1093EF0000E008C010E0F901A5
:100E0000E00FF11F14811093FA000395F90113818B
:100E10000117A0F30091EF000F730093EF00009112
:100E2000EF0000640093EF00789401E00895789457
:100E300000E008952091EE0A222311F400E00895C5
:100E4000F894EFE4FBE0208131812F5F3F4F208356
:100E5000318320E001C023952D3078F4322F329574
:100E6000307F3093ED003091EF00307C332399F7E1
:100E70003091EE0A3A953093EE0A2D30B8F5209174
:100E8000F30022952F702695F80121832091F2001E
:100E900022952F7026953091F300330F330F330FC7
:100EA000230FF80120832091F000322F32FB30E035
:100EB00030F9F80132832091EF002F70F80123837D
:100EC00020E008C04091FA0030E0F801E20FF31F83
:100ED00044832395F80133812317A0F30091EF0099
:100EE000006C0093EF00789401E0089500E0009317
:100EF000EE0A789400E00895FA93EA935A934A939D
:100F00003A932A931A930A934FB75BB70091DA008A
:100F1000102F17FF8BC00091E1000076002309F02D
:100F200071C000E011C0E5EFFAE0208131812F5F50
:100F30003F4F2083318310E01093EE001091EF00BB
:100F4000106C1093EF0003950D3008F06FC01091F6
:100F5000DA00212F27FF6AC0102F1295107F1093FF
:100F6000ED001091EE00212F25FF15C010E0109329
:100F7000EE001091EF001F731093EF001091F3003B
:100F8000103119F411E01093F70A1091EE0A13953D
:100F90001093EE0AD8CF1091EE001F7D112399F225
:100FA0001091EE00105009F4BECF1A9511F11A9568
:100FB000B9F01A9561F01A9509F0BDCFEFEEFAE09D
:100FC000208131812F5F3F4F20833183B4CFE1EF08
:100FD000FAE0208131812F5F3F4F20833183ABCFF7
:100FE000E5EFFAE0208131812F5F3F4F208331838D
:100FF000A2CFE3EFFAE0208131812F5F3F4F2083C2
:10100000318399CF0DE001C003950F3078F4102F94
:101010001295107F1093ED001091EE001123A1F3B3
:1010200000E00093EE0000E00093EF000091DA0092
:10103000102F16FF06C00091DA0000640093DA005A
:1010400005C00091DA000F610093DA005BBF4FBF6B
:10105000099119912991399149915991E991F99100
:1010600018952A931A930A931FB72BB70091DA00A9
:1010700000620093DA002BBF1FBF099119912991DB
:101080001895229742E050E09E0100E010E0F2D176
:1010900008810F3F29F409810F3F39F001E056C163
:1010A0000023E1F709810023C9F700E0F8CF0E948F
:1010B000313CA69700E00A830B830C830D830883E1
:1010C00082E090E0A0E002E0A09FF001EA5BF94F2F
:1010D000008111810831104108F472C000E00A83D8
:1010E0000B830C830D8308830A938E010F5F1F4FC0
:1010F0001A930A938E010B5F1F4F1A930A9350E0C5
:10110000BE016A5F7F4F40E0F001EA5BF94F20814A
:10111000318109E319E00E945C0E012B022B032BA5
:1011200009F052C00881053009F04AC05524442412
:1011300043941DC08C0120E030E04A815B816C81CA
:101140007D81040F151F261F371F003010412040DE
:10115000304048F49E012A5F3F4F8C016DD10A81D7
:101160001B81800F911F01E0400E00E0501E09819D
:1011700010E00415150524F11A831B831C831D83BD
:101180001A938E010F5F1F4F1A930A938E010B5F04
:101190001F4F1A930A9350E0BE01655F7F4F442DA5
:1011A00002E0A09FF001EA5BF94F2081318109E361
:1011B00019E00E945C0E012B022B032B09F4BACF1D
:1011C000A395A03108F47FCF8E839F8342E050E047
:1011D0009E012A5F3F4F00E010E02ED1A696E6E088
:1011E0000C94423C0E94313CA69702E0402E5524CC
:1011F00080E090E08C01000F111FF801EA5BF94FCD
:10120000008111810831104108F48FC000E00A8389
:101210000B830C830D8308830A938E010F5F1F4F8E
:101220001A930A938E010B5F1F4F1A930A9350E093
:10123000BE016A5F7F4F40E08C01000F111FF80173
:10124000EA5BF94F2081318109E319E00E945C0ECD
:10125000012B022B032B09F06EC00881053009F029
:1012600064C0A1E0B0E001C01196098110E00A1746
:101270001B070CF45AC01A831B831C831D831A930B
:101280008E010F5F1F4F1A930A938E010B5F1F4F42
:101290001A930A9350E0BE01655F7F4F4A2F8C017D
:1012A000000F111FF801EA5BF94F2081318109E33A
:1012B00019E00E945C0E012B022B032BB1F5820179
:1012C00020E030E04A815B816C817D81040F151F35
:1012D000261F371F003010412040304048F49E0147
:1012E0002A5F3F4F8201C6D00A811B81400E511EEA
:1012F00000E00A938E010D5F1F4F1A930A9350E08E
:10130000BE01675F7F4F4A2F8C01000F111FF8014C
:10131000EA5BF94F2081318109E319E00E945C0FFB
:10132000012B022B032B09F49FCF0196803100E0A3
:10133000900708F45FCF52CF229700E0088309831B
:1013400042E050E09E0110E077D002D0229608954E
:10135000F89400E10093600000E00093600008E171
:10136000009360000FE000936000FFCF9A938A9390
:1013700008011901CA01462F60E0005010402140C9
:1013800030400F3D1F4F50E020403040B0F4159AE0
:101390000DC08001222D060F151F251FF8012BBF40
:1013A0000691FC01E60FF51F00836395641788F32F
:1013B000159800E08991999108950030150601E093
:1013C0002006350630F4159A90018C010E94673C86
:1013D000EFCF02E0EFCF0E94343CA097A02F40E275
:1013E00050E02FEF30E08E010E94973CA23089F050
:1013F00080E090E050E09E0145E08C010E94153BAA
:1014000040E21AD00196803200E0900798F3A130B4
:1014100079F080E290E050E09E0145E08C010E946E
:10142000153B40E209D00196803800E0900798F320
:10143000A096E3E00C94453C0C01C801159A60E0CD
:1014400070E010C0F999FECF92BD81BD0196F901FF
:10145000E60FF71F008100BDF894FA9AF99A789484
:101460006F5F7F4F8A0141505040012B59F715980B
:10147000C0010895159A0BC0F999FECF12BD01BDA8
:101480000F5F1F4FF89A60B5F90161939F01BA0190
:1014900041505040672B81F715980895082EA801F8
:1014A000FA01E95EFE4F00811181F80100810023FD
:1014B000F9F480E017C000E010E020E030E0FA012D
:1014C000E75EFE4F60817181E82FF0E0EE0FFF1FB5
:1014D000EE0FFF1F6E0F7F1FFB010083118322831E
:1014E00033838395FA01EA5EFE4F0081801718F37B
:1014F00000E010E020E030E0802D0895BA93AA9338
:10150000D8016EE47AE040E023E030E18D010E94F2
:10151000A31000E0A95EBE4FED91FC910083A9915C
:10152000B99108950895F9014381483099F4F9017A
:1015300060816F77F9014481F9015581F9013681A4
:10154000262FB801015C1E4FF80100811181F801BE
:101550008B010995089508952FEF3FEFF801EE589C
:10156000FF4F00801180FA01EE0FFF1F0E0E1F1EAD
:10157000F00120833183F801E059FF4F2081318150
:10158000440F551F440F551F240F351FF901628169
:10159000462F242FA80108581F4FF8010081118100
:1015A000F8018A01099508950E942E3C2C97280184
:1015B000F90160800FE76022F90102810130C9F56D
:1015C000F20100811181F8010081601609F0B6C0B6
:1015D000D201ED91FC91008110E00050194F088379
:1015E000198301E00B8300E00A83F201E65AFF4F02
:1015F00000810C83F201EB5FFE4F0081002349F074
:101600000C8100680C8300E0F201EB5FFE4F008369
:1016100005C001E0F201EB5FFE4F00839E0106E092
:10162000400E01E0501EF201008111810E94BC06B3
:1016300085C0F90104810F777724F201E60DF71DCB
:10164000E658FF4F00837724F201E60DF71DE658B8
:10165000FF4F00810F3009F471C0882465C0F2018A
:10166000E059FF4F00811181282D30E0220F331FF8
:10167000220F331F020F131FF8012281022F601661
:1016800009F051C0F201E059FF4F00811181282D6E
:1016900030E0220F331F220F331F020F131FF801F8
:1016A00080819181A281B3818F7F9F7FA070B07074
:1016B000F201EE58FF4F00811181282D30E0220FFA
:1016C000331F020F131FF801008111810E94783926
:1016D00000E010E020E030E03A932A931A930A9356
:1016E0000FE310E020E030E0AC01BD010E944E3B72
:1016F0003A932A931A930A932CEA3AE0482D50E041
:1017000060E070E082010E94CC38F201EE58FF4F99
:1017100020813181482D50E0440F551F240F351F83
:10172000F901008311838394F201E259FF4F008194
:101730001181F8010081801608F491CF2C96E9E020
:101740000C943F3CBA93AA932C97D801FD01EC5816
:10175000FF4F00811181F80100811181012BD1F02F
:10176000ED91FC911197008110E00050194F088312
:10177000198301E00B8300E00A83FD01E65AFF4F65
:1017800000810C839E01AA5FBE4F0D911C910E94A7
:10179000BC060BC0FD01EA58FF4F008111810E9479
:1017A0007839AA58BF4F0D931C932C96A991B991E3
:1017B00008959A938A93C8018C01A2D08C0107D016
:1017C00000E010E020E030E08991999108950E94B6
:1017D0002F3CD80169ED7BE040E027E130E18D014D
:1017E0000E94A31000E0FD01EB5FFE4F008380E04C
:1017F00041C0FD01E059FF4F00811181282F30E0E9
:10180000220F331F220F331F020F131FF801008115
:10181000118120E030E0402F412B422B432B49F136
:1018200040E050E060E070E07A936A935A934A9304
:101830004FE350E060E070E00E944E3B3A932A9301
:101840001A930A932CEA3AE0482F50E060E070E0E7
:101850008D010E94CC38FD01EE58FF4F208131816F
:10186000482F50E0440F551F240F351FF901008306
:1018700011838395FD01E259FF4F00811181F80129
:101880000081801708F4B5CFFD01EC58FF4F0081AF
:101890001181F80100811181012B79F1FD01EC58D2
:1018A000FF4F00811181F801408051806624772428
:1018B0004FE350E060E070E0820193010E944E3BF4
:1018C0003A932A931A930A934FE350E060E070E052
:1018D000820193010E944E3B3A932A931A930A93F2
:1018E00022EA3BE040E050E060E070E08D010E94C1
:1018F000CC38AA58BF4F0D931C93E8E00C94403CA1
:101900000E94333CD80180E01FC0FD01EE58FF4F1C
:1019100000811181282F30E0220F331F020F131F87
:10192000F801008111810E947839FD01EE58FF4FC6
:1019300020813181482F50E0440F551F240F351F5F
:10194000F901008311838395FD01E259FF4F008166
:101950001181F80100818017C0F2FD01EA58FF4FA4
:10196000008111810E947839AA58BF4F0D931C93B2
:10197000E4E00C94443C089508950E94333CD8015F
:10198000C901FD01E65AFF4F0081002339F4FD0132
:10199000E65AFF4F0081063009F463C1FC0105815E
:1019A000002349F0FC010581ED91FC911197108114
:1019B000011709F056C1FC010481E4E9F0E0FBBF26
:1019C000F0E00C94C33B9C018D010E94080349C1C7
:1019D0009C018D010E94160344C19C018D010E944F
:1019E0001C033FC19C018D010E942B033AC19C0145
:1019F0008D010E94470335C19C018D010E94640343
:101A000030C19C018D010E947C032BC19C018D0182
:101A10000E94820326C19C018D010E94A30321C163
:101A20009C018D010E94B1031CC18D010E94EA3707
:101A300018C18D010E94573814C18D010E940318EE
:101A400010C18D010E944F180CC1FC010581ED9160
:101A5000FC9111971081011721F420E137E28D01EB
:101A600021D1FFC0FD01E659FF4F2081318100E007
:101A700010E02017310741F08D01FD01E659FF4FBD
:101A800020813181F9010995FC010581ED91FC91DD
:101A900011971081011721F421E08D010E949633E6
:101AA000E0C0FD01E65AFF4F0081013029F0A65A3F
:101AB000BF4F0C91043011F40E949C09D2C0FD016B
:101AC000E65AFF4F0081013029F0A65ABF4F0C9112
:101AD000043011F40E94A809C4C000E010E0009393
:101AE0003F0B1093400B00E010E00093410B10936C
:101AF000420B00E010E00093430B1093440B00E016
:101B000010E00093450B1093460B00E010E00093AB
:101B1000470B1093480B00E010E000934D0B10931F
:101B20004E0B00E010E000934F0B1093500B00E0C1
:101B300010E00093510B1093520B93C0A65ABF4F65
:101B40000C91013021F4FC0106810E94EB0989C04F
:101B5000A65ABF4F0C91013011F40E94570881C062
:101B6000A65ABF4F0C91013011F40E94F20879C0BF
:101B700011E0FC0106810E949F3573C010E0FC015A
:101B800006810E949F356DC00E945E356AC0FC01CF
:101B90000581ED91FC9111971081011751F4A65A1E
:101BA000BF4F0C91013029F411E0FC0106810E9425
:101BB000373657C0FC010581ED91FC9111971081DA
:101BC000011751F4A65ABF4F0C91013029F410E0CF
:101BD000FC0106810E94373644C0FC010581ED916D
:101BE000FC91119710810117E1F5A65ABF4F0C9196
:101BF0000130B9F500917A000F7700937A000E94C6
:101C0000C5000091BC000B7F0093BC0003B70560CA
:101C100003BF889526C0FC010581ED91FC911197C9
:101C200010810117F1F4FD01E65AFF4F00810130E8
:101C3000C1F4FC018681FD01E459FF4F208131810F
:101C400000E010E02017310731F08D01A459BF4F9B
:101C5000ED91FC9109958093B4030E9457080E946E
:101C6000A809E4E00C94443CBA93AA932C97F80199
:101C7000A081B1812C9130E02060376028833983C6
:101C800020E02A8321E02B8320E02C839E010A5F41
:101C90001E4FF801008111810E94BC062C96A9916B
:101CA000B99108950093F80A1093F90A08950093E2
:101CB000F80A1093F90A08950E942D3C2697F8011E
:101CC0008901642E4B01852FAE019E012E5F3F4F8F
:101CD000E85FFE4F60817181FB01099598014A819F
:101CE0005B816C817D81452B462B472B29F00A8136
:101CF0001B812C813D81DCC0F9010281601628F036
:101D000001E110E029E036E0D3C08823A1F0F90119
:101D100060817181462D50E006E010E00E940B3B8F
:101D2000600F711FFB01008100FF05C001E010E0A2
:101D300021E036E0BDC06A897B89F90120803180CD
:101D4000462D50E006E010E00E940B3B200E311EB5
:101D5000F1010181FB010083F90120803180462DD2
:101D600050E006E010E00E940B3B200E311EF10116
:101D700082819381A0E0B0E048885988F201008018
:101D8000118022803380012802280328D1F0F2013B
:101D90000080118022803380081619062A063B062F
:101DA00081F0FB010081093008F479C0F201008064
:101DB000118022803380081619062A063B0608F097
:101DC0006EC0FB0100810930D1F0AC01BA01F9010C
:101DD00020813181462D50E006E010E00E940B3B4F
:101DE000200F311FF90124813581AB0184010E944C
:101DF000673CF20180839183A283B3834BC0F901D6
:101E000020813181462D50E006E010E00E940B3B1E
:101E1000200F311FF90104811581B801F201008002
:101E200011802280338001280228032829F0F20142
:101E300000801180900101C09C010801020E131E58
:101E4000940108C0F8014081F90140830F5F1F4FE2
:101E50002F5F3F4FF8014081442319F00015110511
:101E600088F3A801461B570B652F660F660B762F6C
:101E7000F2014083518362837383F2014081518177
:101E800062817381481759076A077B0718F420E0BD
:101E9000F801208300E010E020E030E009C0F2010A
:101EA00080839183A283B38300E110E027E036E0D2
:101EB0002696EFE00C943E3C0E94273C2697580162
:101EC0007901842E6B01852FAE019E012E5F3F4F5D
:101ED0008701BA01F501E85FFE4F40815181FA01A7
:101EE000AB01099538010A811B812C813D81012BB1
:101EF000022B032B29F00A811B812C813D8111C10A
:101F0000F3010281801628F001E110E029E036E0BB
:101F100008C18823A1F0F30120813181482D50E0D0
:101F200006E010E00E940B3B200F311FF9010081F9
:101F3000023029F402E010E021E036E0F2C0F301C3
:101F400020813181482D50E006E010E00E940B3BDB
:101F5000200F311FF9019180F30120813181482D3B
:101F600050E006E010E00E940B3B200F311FF9010A
:101F700082819381A0E0B0E04E885F88F201008109
:101F8000118122813381012B022B032BC9F0F20135
:101F90000081118122813381081719072A073B0725
:101FA00079F009E0901609F0B3C0F20100811181C7
:101FB00022813381081719072A073B0708F0A8C0B8
:101FC0009601092DF50146855785FA0109950A8381
:101FD0001B832C833D830A811B812C813D81012B36
:101FE000022B032B29F00A811B812C813D8199C092
:101FF000AC019601B9019A01F30100811181F80148
:10200000482D50E006E010E00E940B3BE00FF11F6E
:1020100004811581A9019B010E94673C09E090168B
:1020200001F5F2010081118122813381081719071E
:102030002A073B07B0F460E0F30120813181482D8D
:1020400050E006E010E00E940B3B200F311FF90129
:1020500044815581F20100811181400F511FFA0125
:102060006083F20180839183A283B3830881198105
:10207000012B79F1082D10E0000F111FE881F98183
:10208000E00FF11F2081318100E010E020173107BF
:1020900001F1482D93018501682D70E0660F771FCF
:1020A000E881F981E60FF71F60817181FB010995D5
:1020B0000A831B832C833D830A811B812C813D81F4
:1020C000012B022B032B29F00A811B812C813D81DE
:1020D00028C0F30120813181482D50E006E010E056
:1020E0000E940B3B200F311FF901008102FF0BC042
:1020F000482D970185015AE0A50E51E0B51ED50186
:10210000ED91FC91099500E010E020E030E009C07D
:10211000F20180839183A283B38300E110E027E082
:1021200036E02696E3E10C94383CBA93AA93D801A2
:1021300089019A01AB01A85FBE4FED91FC91099511
:10214000A991B99108950E94333C2697842FDB0111
:10215000BE01AE014E5F5F4FE8DF4A815B816C815B
:102160007D81452B462B472B89F428813981232BF0
:1021700069F0F8010281801748F490E0880F991FF8
:10218000E881F981E80FF91FA083B1830A811B81DF
:102190002C813D812696E4E00C94443C08950F394F
:1021A00049F4F9010081002329F000E310E029E05F
:1021B00036E0089500E010E020E030E008950E944D
:1021C000333CC901DA0120E030E02D933C931197B4
:1021D000E2EFF0E0FBBFF0E00C94C73B00E010E062
:1021E00040E050E060E070E0FC0140835183628396
:1021F000738345E050E00E940B3B98010AE418E02D
:10220000020F131FE4E00C94443C01E010E0E8CF1F
:1022100002E010E0E5CF03E010E0E2CF04E010E0E0
:102220002BEF3BE0FD0120833183DACF05E010E0A6
:10223000D7CF06E010E0D4CF07E010E0D1CF08E020
:1022400010E0CECF09E010E02FE23CE02D933C936C
:10225000C7CF0AE010E0C4CF0BE010E0C1CF0CE024
:1022600010E0BECF0DE010E0BBCF0EE010E0B8CF25
:102270000FE010E0B5CF00E110E0B2CF01E110E0D7
:10228000AFCF02E110E0ACCF03E110E0A9CF04E151
:1022900010E0A6CF05E110E0A3CF06E110E0A0CF4B
:1022A00007E110E09DCF08E110E09ACF09E110E0CE
:1022B00097CF0AE110E094CF0BE110E091CF0CE151
:1022C00010E08ECF00E010E022E036E0FC01008359
:1022D00011832283338300E010E094CF0E94283CD6
:1022E0002D973801622F6A01F30122813381F301B6
:1022F00006811781F8014085518505E010E00E94B4
:102300000B3B200F311F462F50E005E010E00E94EC
:102310000B3B200F311FF30142805380F3010681F4
:102320001781F8014285538505E010E00E940B3BC0
:10233000400E511E462F50E005E010E00E940B3B7E
:10234000400E511EEE248824F20100811181F80113
:10235000A480B580F90100811181F80102851385FF
:10236000F801008111810F7F1770F601008311833E
:1023700000E0F60102838E010B5F1F4FF80120E0A1
:1023800088E021938A95E9F7F201208131814E2D71
:1023900050E006E010E00E940B3B200F311FF901D6
:1023A00002851385F80122803380022C132C808152
:1023B0009181A281B3818F7F9070A070B070082F3F
:1023C000092B0A2B0B2B09F459C0482D50E060E073
:1023D00070E0480F591F6A1F7B1F413400E050070F
:1023E00000E0600700E0700708F048C08C019D0124
:1023F000015010402040304043E00E94723B0F5F8C
:102400001F4F2F4F3F4F09831A832B833C8311812A
:10241000012F402F01E00A938E010F5F1F4F1A9387
:102420000A938E010C5F1F4F1A930A9350E0BE016E
:10243000665F7F4F900183010E945C0E012B022B8F
:10244000032B11F00FEF2BC000E00A9348E0082D9A
:102450000E94FD3A542F082D06950695069510E02A
:10246000B601600F711F6C5F7F4F40E010E09E016E
:102470002A5F3F4F0C01002D32D2880EE394F50104
:102480000081E01608F477CF082D10E001501040CD
:1024900043E00E941F3B0395F601038300E02D9665
:1024A000EFE00C94393C0E94273C6897C801590121
:1024B00088249924A0E0B0E000E010E000E010E003
:1024C00002E07724CC24EE24F5011281112309F0D7
:1024D00005C1FC0126813781F90144805580FC014A
:1024E00020853185F90124813581142D152931F498
:1024F00000E06896E0E10C94383C04E024153505D2
:10250000B8F3102F125019F0125039F1F7CFFC0127
:102510006281738105E010E0A2010E940B3B600F15
:10252000711FFB0100811181F80102851385F801FB
:102530004081518162817381F501008011802224E4
:1025400033244015510562057305B9F2C39401E0C7
:10255000400E00E0501E02E0D1CFFC010681178141
:10256000F80146805780FC012281338105E010E0AC
:10257000A2010E940B3B200F311F4C2D50E005E0C3
:1025800010E00E940B3B200F311FF90100811181E7
:10259000F80184809580EE2402C0760CE394F40167
:1025A0000081E01608F098C08E010C5F1F4FF80103
:1025B00020E0A8E02193AA95E9F7FC01228133816C
:1025C00005E010E0A2010E940B3B200F311FF90132
:1025D0004C2D50E005E010E00E940B3BE00FF11F96
:1025E000208131814E2D50E006E010E00E940B3B2F
:1025F000200F311FF901A285B3850A2F0B2B11F48F
:102600000FEF77CF0D911D912D911397602E6620BE
:1026100029F2F501138108E0109F272D30E0062DE7
:1026200010E0200F311F021613060CF4B7CF00E0A4
:102630000A9350E0BE016B5F7F4F40E0F42E7A9327
:102640006A93D52E48E0072D0E94FD3A142F5D2D88
:10265000699179914F2D072C0694069406941124C4
:102660009501200D311D2C5F3F4F062D38D1062DD1
:1026700010E001501040980143E089010E941F3B87
:102680000F5F1F4F212F220F220B322F0883198338
:102690002A833B8301E00A938E010F5F1F4F1A9339
:1026A0000A9350E0BE01695F7F4F0D911D912D91FE
:1026B0001397012F402F0D911D912D913C91022FC9
:1026C000132F98018C010E945C0F012B022B032B0E
:1026D00009F463CF0FEF0DCF00E00BCFF5010281BE
:1026E000013009F005CF01E0FC0126813781F901B5
:1026F00040845184FC0120853185F9012085318594
:10270000142D152911F4F4CE04E02415350508F430
:10271000EFCE102F115031F0135051F11A9509F4EA
:10272000C8C0F3CFFC016281738105E010E0A20113
:102730000E940B3B600F711FFB0100811181F801AA
:1027400002851385F8014081518162817381F50111
:102750000080118022243324401551056205730541
:1027600099F2C39401E0400E00E0501E01E0CDCF8D
:10277000FC016281738105E010E0A2010E940B3B25
:10278000600F711FFB0100811181F801008911891F
:10279000F80140814D3F11F405E0B7CFF8014081C9
:1027A0004C3F39F5FC01648175814C2D50E001E10D
:1027B00010E00E940B3B600F711FFB01008100FFC6
:1027C00016C0FC01248135814C2D50E001E110E060
:1027D0000E940B3B200F311F2B5F3F4F8A5F9E4FA4
:1027E000FC01008111810E94BC0600E082CE05E060
:1027F0008CCFF80120812F3F29F0F80100810E3F96
:1028000009F055C0FC01248135814C2D50E001E1D7
:1028100010E00E940B3B200F311FF9010181128152
:102820000E9478399801FC01648175814C2D50E03B
:1028300001E110E00E940B3B600F711FFB0121833F
:102840003283FC01248135814C2D50E001E110E000
:102850000E940B3B200F311FF901038114810E945C
:1028600078399801FC01648175814C2D50E001E1BB
:1028700010E00E940B3B600F711FFB012383348328
:10288000FC01248135814C2D50E001E110E00E94D3
:102890000B3B200F311FF90100810E7F00834C2D6F
:1028A00050E060E070E08C017CD000E022CE0FEFC1
:1028B00020CEAE01445F5F4F2C2D8C010FDD002335
:1028C00011F00FEF16CE9E01245F3F4F8A5F9E4F9F
:1028D000FC01008111810E94BC0600E00ACE0E942A
:1028E000333C002E812F142EDB012C8005C001E02B
:1028F00010E0A00FB11F0318002009F44FC0752F7E
:10290000781B713044F0F901008110E0472F0E94DC
:10291000153B602F08C0F901008110E0472F419559
:102920000E941F3B602F71301CF008E0051B02C0A5
:1029300008E0081B001610F4302C01C0302E452F83
:10294000430D0FEF10E00E94153B702F48E0451B30
:102950000FEF10E00E941F3B702B072F00956023A4
:102960000C9107230C930C91062B0C93830D88304C
:1029700050F080E0112019F00FEF1FEF02C001E0CE
:1029800010E0200F311F530D583008F4B4CF50E041
:10299000222009F4ACCF0FEF1FEFABCFE5E00C9492
:1029A000443C0E94333C1801CA01DB012FEF3FEF8A
:1029B000F10164817581AC0101E110E00E940B3BE3
:1029C000600F711FFB012183328320E030E0F101B1
:1029D000648175818C0141E150E00E940B3B600FE6
:1029E000711FFB012583368320E081012BD0E4E0B9
:1029F0000C94443C0E94333C1801CA01DB012FEFC8
:102A00003FEFF10164817581AC0101E110E00E94AA
:102A10000B3B600F711FFB0123833483F101248181
:102A200035818C0141E150E00E940B3B200F311FAA
:102A3000F90100810E7F008320E0810103D0E4E0F2
:102A40000C94443C0E94273C2F972883280166243D
:102A500020E030E003E0702EF20106811781F801DA
:102A6000C084D184F20106811781F80102851385A3
:102A700009831A83F20100851185F801E084F1844D
:102A80000FEF01B90C2D0D2909F432C24CE050E0D2
:102A900020E030E08E010D5F1F4F0E94973C02C086
:102AA0000BE0702EEC14FD0408F422C2072D035035
:102AB00039F0025009F4E9C1065009F409C216C2FE
:102AC000F2012281338105E010E0A6010E940B3B58
:102AD000200F311FF90100811181F8010285138552
:102AE000F801038107FDDCCFF2012281338105E08B
:102AF00010E0A6010E940B3B200F311FF90100815D
:102B00001181F801208931890881002309F44DC021
:102B1000F9010081002309F448C0F9010081013F57
:102B200008F043C0F20164817581462D50E001E157
:102B300010E00E940B3B600F711FFB0100810395A9
:102B40000083F20164817581462D50E001E110E0BF
:102B50000E940B3B600F711FFB010081F901108186
:102B6000011719F560E0F20124813581462D50E00E
:102B700001E110E00E940B3B200F311FF90160833F
:102B80004CE050E020E030E08E010D5F1F4F0E94CE
:102B9000973CA801262D8201A1DB002319F00BE050
:102BA000702E80CF05E0702E7DCF08810023C9F103
:102BB000F90100810C3FA9F5F20124813581462DF0
:102BC00050E001E110E00E940B3B200F311F2B5F12
:102BD0003F4FA901262D820181DB002381F0F20104
:102BE00024813581462D50E001E110E00E940B3B2D
:102BF000200F311FF90100810E7F00830FC0F20109
:102C000024813581462D50E001E110E00E940B3B0C
:102C1000200F311FF9010081016000830BE0702E4D
:102C200041CF0881002321F0F90100810023C1F088
:102C3000F90100810F3F29F0F90100810E3F09F0F1
:102C400021C1F20124813581462D50E001E110E0DF
:102C50000E940B3B200F311FF901008100FD12C1C2
:102C60004CE050E020E030E08E010D5F1F4F0E94ED
:102C7000973CA801262D820131DB002319F00BE0DF
:102C8000702E10CFF20124813581462D50E001E1F4
:102C900010E00E940B3B200F311FF90105811681C6
:102CA0002B813C810217130759F5F20124813581EC
:102CB000462D50E001E110E00E940B3B200F311F38
:102CC000F90100851E810117D9F448E050E09E010A
:102CD000295F3F4FBA01F20184819581462D50E072
:102CE00001E110E00E940B3B800F911F09968C01BF
:102CF000AB010E944F3C012B19F40BE0702ED2CE99
:102D0000F2012281338105E010E0A6010E940B3B15
:102D1000200F311FF90100811181F80102A113A1D7
:102D2000F80180819181A0E0B0E0F201228133813D
:102D300005E010E0A6010E940B3B200F311FF901B6
:102D400000811181F80106891789F801808091803E
:102D5000AA24BB2405E0702E082F092B0A2B0B2B6D
:102D6000E1F1F20104811581F801462D50E001E105
:102D700010E00E940B3BE00FF11F018112810E94C5
:102D8000783900E010E020E030E03A932A931A937B
:102D90000A930FE310E020E030E0AC01BD010E9497
:102DA0004E3B3A932A931A930A9321ED34E1462D30
:102DB00050E060E070E082010E94CC389801F2019E
:102DC00064817581462D50E001E110E00E940B3BCB
:102DD000600F711FFB0121833283082D09290A2905
:102DE0000B2909F45FCEF20124813581462D50E094
:102DF00001E110E00E940B3B200F311FF90103811C
:102E000014810E94783900E010E020E030E03A932D
:102E10002A931A930A9304E610E020E030E0A4011C
:102E2000B5010E944E3B44E00E94723B3A932A93C4
:102E30001A930A932AEF34E1462D50E060E070E0E7
:102E400082010E94CC389801F20164817581462D7F
:102E500050E001E110E00E940B3B600F711FFB018D
:102E600023833483F20124813581462D50E001E132
:102E700010E00E940B3B200F311FF901008101601F
:102E8000008310CE0BE0702E0DCEF201248135812F
:102E9000462D50E001E110E00E940B3B200F311F56
:102EA0002B5F3F4FBE016D5F7F4F8901FB014CE0FF
:102EB00050E00E94083C9E012D5F3F4FF201EA5F07
:102EC000FE4F008111810E94BC060BE0702EEACDFE
:102ED000639401E0C00E00E0D01E09811A810F5FEB
:102EE0001F4F09831A8303E0702EDCCD0FEF01C062
:102EF00000E02F96E0E10C94383C0E94333CD8016E
:102F0000FD01E05AFF4F0081002309F475C04250D3
:102F100029F04A9519F0425009F06EC0FD01628116
:102F20007381FD0106811781F8014085518505E017
:102F300010E00E940B3B600F711F261B370B8901AD
:102F400045E050E00E943A3B802FFD01248135810D
:102F5000482F50E001E110E00E940B3B200F311F91
:102F6000F901018112810E9478399801FD01648183
:102F70007581482F50E001E110E00E940B3B600F8B
:102F8000711FFB0121833283FD0124813581482F8C
:102F900050E001E110E00E940B3B200F311FF901CE
:102FA000038114810E9478399801FD016481758143
:102FB000482F50E001E110E00E940B3B600F711FB1
:102FC000FB012383348360E0FD0124813581482F98
:102FD00050E001E110E00E940B3B200F311FF9018E
:102FE0006083482F50E060E070E08D01DADC00E0A3
:102FF00010E020E030E004C000E010E020E030E02D
:10300000E4E00C94443C0E942F3C2697280166245F
:1030100008E1702EF20106811781F8018085918503
:10302000F20100851185F801A085B185082F092BD3
:1030300061F52EC0BE01AE014E5F5F4F930182016C
:103040000E9495100A811B812C813D81012B022B4E
:10305000032BB1F408811981012B91F02DE737E1A1
:10306000E881F981248335832DE737E1E881F9810F
:10307000268337832DE737E1E881F981228733877B
:1030800001E0600E00E0701E0196A817B90790F6E7
:1030900020E08201D7DC2696E8E00C94403C0E94B8
:1030A0002F3CD8014424FD0106811781F801808559
:1030B0009185FD0100851185F80160847184082FD8
:1030C000092B09F05FC062C0FD0124813581442DC8
:1030D00050E001E110E00E940B3B200F311FF9018D
:1030E000018112810E9478399801FD016481758106
:1030F000442D50E001E110E00E940B3B600F711F76
:10310000FB0121833283FD0124813581442D50E070
:1031100001E110E00E940B3B200F311FF9010381F8
:1031200014810E9478399801FD0164817581442DD4
:1031300050E001E110E00E940B3B600F711FFB01AA
:103140002383348360E0FD0124813581442D50E0E8
:1031500001E110E00E940B3B200F311FF901608359
:1031600020E030E0FD0164817581442D50E001E1F3
:1031700010E00E940B3B600F711FFB01258336831B
:10318000439401966816790608F09ECFE8E00C9407
:10319000403C8A9300E00093810008EA009380009D
:1031A00000EC0093820000E20093820000E010E057
:1031B000109385000093840000E50CBD419800E069
:1031C0000EBD0DB5102F17FFFCCF00E00EBD0DB5E5
:1031D000102F17FFFCCF419A80E003C0082F88D042
:1031E00083958430D8F389910895013071F444E0D7
:1031F0000091C5031091C6030E941A3B102F209125
:10320000C503022F0295007F17C02091C70330919C
:10321000C803232B11F0002311F44398089544E0D0
:103220000091C7031091C8030E941A3B102F2091F0
:10323000C703022F0295007F20E52CBD459820E3AF
:103240002EBD2DB5322F37FFFCCF1EBD1DB5212F52
:1032500027FFFCCF0EBD0DB5102F17FFFCCF459AF1
:10326000439A08950E942F3C812F422EA32F90E075
:10327000893C60F5002351F1053040F50A95402F57
:1032800050E007E010E00E940B3B2AE7622E2AE0A4
:10329000722E600E711E082F41D0F894F3018283C4
:1032A000242D30E0220F331F220F331FF301208320
:1032B0003183B0E0AA0FBB1FAA0FBB1FF301A3838A
:1032C000B483F30105831683789401C091E0092F3C
:1032D000E8E00C94403CF89410919A0A1023009571
:1032E00020919A0A202320939A0A7894012F089516
:1032F000BA93AA93402F50E007E010E00E940B3BE6
:10330000AAE7BAE0A00FB11F12960C91129706D04F
:1033100015960D931C93A991B9910895392EE82F14
:1033200010E020E030E044E454E965E270E00E94FF
:103330004E3B022F132FC8010496887F9F718C018A
:103340008E2F932D0895BA93AA93402F50E007E053
:1033500010E00E940B3BF801E658F54F0381148101
:10336000012B09F4BEC050E007E010E00E940B3BC7
:10337000F801E658F54F00811181012B09F4B1C025
:1033800050E007E010E00E940B3BAAE7BAE0A00F74
:10339000B11F50E0FA01E556F54F30812C9800E559
:1033A0000CBD4198FD0106810EBD0DB5102F17FF14
:1033B000FCCFFD0105810EBD0DB5102F17FFFCCF11
:1033C000419A00E411E00D901C901197B801600D36
:1033D000711DFD01238034800B01020C131CED9143
:1033E000FC911197B99738F02D903C90F801E20DBF
:1033F000F31DB89702C0E0E0F0E020918000206467
:103400002093800020E820938200209180002F7B71
:1034100020938000209180002461209380001093ED
:1034200089000093880070938B0060938A0010924B
:103430008D0000928C000CE006BB009181000160C1
:1034400000938100032F009512B1102312B900914F
:103450008400109185000E171F07C8F320B7B29B98
:10346000FECF02B1032B02B900E50CBD419800E08C
:103470000EBD0DB5102F17FFFCCF00E00EBD0DB532
:10348000102F17FFFCCF419AB39BFECF2C9A00E080
:103490000093810008EA0093800000EC0093820012
:1034A00000E20093820000E010E01093850000939A
:1034B0008400EF2B81F025FB3EF401E050E0FA019F
:1034C000EE59F44F00830DC000E050E0FA01EE59D0
:1034D000F44F008306C002E050E0FA01EE59F44FC9
:1034E0000083A991B991089524E009E319E00E94AD
:1034F000963321E009E319E00E94963304E610E0D8
:103500000E946C0508950BE51CE00E941A07002339
:1035100031F02BE53CE009E319E00E943B3209E37E
:1035200019E00E9436320093050B0E94750608953B
:103530002C97F9014381433081F4F9014481509182
:10354000B403451751F4F9014581442331F4F901DD
:103550004681442311F441E001C040E050E0F9010C
:1035600040835183F90120813181232B01F120E532
:1035700031E02883398320E02A8327E02B8324E06D
:103580002C8322E02D832AE82E8323E02F832AE850
:10359000288720E029872091B4032A879E010A5FAB
:1035A0001E4FF801008111810E94BC0601C000E09D
:1035B0002C960895259700E010E020E030E0098384
:1035C0001A832B833C8300E010E020E030E00EE320
:1035D00007BD08E004BD02E000936E0004B503607F
:1035E00004BD00E00A938E010F5F1F4F1A930A93E8
:1035F0008E010C5F1F4F1A930A9350E06FE97AE037
:1036000040E026E030E109E319E00E945C0E00E0B2
:1036100000937B0C00E025C010E0F801EB5DF94F52
:10362000208110E0F801EF5DF94F10812117C0F003
:1036300010E0F801EB5DF94F408150E060E070E090
:10364000EFE9FAE0008011802280338040155105B7
:103650006205730528F410917B0C139510937B0C75
:1036600003950430C8F225960895F894E7E7FCE046
:10367000008111812281338178940895BA93AA93AD
:103680009A938A93FA93EA933A922A921A920A9216
:103690007A936A935A934A933A932A931A930A9382
:1036A000AFB7BBB7179AE7E7FCE000811181228131
:1036B00033810F5F1F4F2F4F3F4F008311832283B2
:1036C00033830091F70A0023B1F180E02EC090E02F
:1036D000FC01E559F34F0081039590E0FC01E559A9
:1036E000F34F008390E0FC01E75DF94F1081011773
:1036F000C0F001E090E0FC01E159F34F008300E0ED
:1037000090E0FC01E959F34F008300E090E0FC01F8
:10371000E559F34F008300E090E0FC01ED58F34FD2
:10372000008300E00093F70A8395843080F200E084
:1037300000937C0C41E080E00FC090E0FC01E15977
:10374000F34F0081002339F090E0FC01E959F34F79
:103750000081039500838395843078F3179880E087
:1037600001C08395843008F076C090E0FC01E159F7
:10377000F34F00810023A9F390E0FC01E959F34FD6
:10378000008190E0FC01EF5DF94F10810117D8F046
:1037900090E0FC01ED58F34F00810023A1F4442395
:1037A00041F000917B0C002321F001E00E94F5180C
:1037B00040E0082F0E94A33601E090E0FC01ED58A4
:1037C000F34F008348C090E0FC01E959F34F0081BA
:1037D00090E0FC01EB5DF94F10810117F8F090E0EB
:1037E000FC01ED58F34F0081002319F0082F0E94CF
:1037F000A31900E090E0FC01E159F34F0083009130
:103800007C0C039500937C0C00917C0C10917B0C3C
:10381000011709F502E00E94F5181DC090E0FC01B7
:10382000E959F34F008110E020E030E0EFE9FAE0E1
:103830000080118022803380001511052205330598
:1038400008F48FCF00E090E0FC01E159F34F0083D2
:1038500002E00E94F518BBBFAFBF099119912991F1
:1038600039914991599169917991099019902990CB
:103870003990E991F99189919991A991B991189506
:103880000E942D3C4801CA01DB012FEF3FEFAC0144
:103890000AE410E00E940B3BF401E00FF11FEA5A2A
:1038A000FF4F2083318325E8AC010AE410E00E9439
:1038B0000B3BF401E00FF11F228B00E010E024E04D
:1038C00035E03A932A931A930A93AC010AE410E084
:1038D0000E940B3BF401E00FF11F628DAC010AE482
:1038E00010E00E940B3BF401E00FF11F408D518D61
:1038F0001A01AC010AE410E00E940B3BF401E00F56
:10390000F11F3089A1011A01AC010AE410E00E9404
:103910000B3BF401E00FF11F2189A101840118D6AE
:1039200000E010E024E035E028013901AC010AE4B0
:1039300010E00E940B3BF401E00FF11F448A558A0E
:10394000668A778AAC010AE410E00E940B3BF4011E
:10395000E00FF11FE85AFF4F2081318100E010E0B5
:1039600020173107D9F0AC010AE410E00E940B3BAC
:10397000F401E00FF11F20898401B8018C014AE4B1
:1039800050E00E940B3BF401E00FF11FE85AFF4F9B
:1039900000811181F8018B0109950EC0AC010AE488
:1039A00010E00E940B3BF401E00FF11F0189013090
:1039B00019F4282F84014ED3EAE00C943E3C0E9477
:1039C000343CC801A0E004C02A2F8C0143D3A39546
:1039D000AA23D1F3E3E00C94453C0E94333C2497A6
:1039E0001801422F50E00AE410E00E940B3BF10165
:1039F000E00FF11F438D548D658D768D452B462B41
:103A0000472BD1F4422F50E00AE410E00E940B3B18
:103A1000F101E00FF11F878D90A1A1A1B2A1422F6A
:103A200050E00AE410E00E940B3BF101E00FF11FAF
:103A3000838F948FA58FB68F422F50E00AE410E059
:103A40000E940B3BF101E00FF11F438D548D658DFA
:103A5000768D488359836A837B8301E00A938E01C4
:103A60000F5F1F4F1A930A9351E0352F422F50E0FA
:103A70000AE410E00E940B3BB101600F711F6D5D05
:103A80007F4F532F352F422F50E00AE410E00E9461
:103A90000B3BF101E00FF11F428D532F842F952F27
:103AA000422F50E00AE410E00E940B3BF101E00FCE
:103AB000F11F208D318D592F482F81010E945C0FFD
:103AC000402F412B422B432B21F400E010E020E05B
:103AD00030E02496E4E00C94443C0E942F3C25976F
:103AE000D801822F00E010E020E030E009831A8343
:103AF0002B833C8301E00A938E010F5F1F4F1A93C3
:103B00000A938E010C5F1F4F1A930A9351E0252FE1
:103B1000482F50E00AE410E00E940B3BBD01600F0B
:103B2000711F6D5D7F4F522F252F482F50E00AE403
:103B300010E00E940B3BFD01E00FF11F428D522F60
:103B4000242E352E482F50E00AE410E00E940B3B53
:103B5000FD01E00FF11F208D318D532D422D8D0180
:103B60000E945C0E402F412B422B432B41F5498094
:103B70005A806B807C80482F50E00AE410E00E945D
:103B80000B3BFD01E00FF11F438E548E658E768E48
:103B900000E010E020E030E028013901482F50E03B
:103BA0000AE410E00E940B3BA00FB11FFD01478EFD
:103BB00050A261A272A200E010E020E030E0259661
:103BC000E8E00C94403C0E94293CEB974801A22E6F
:103BD000C32E80E090E0A0E0B0E000E010E020E044
:103BE00030E00D831E832F833887662444245524B8
:103BF0000AC0662463948F5F9F4FAF4FBF4F01E0B1
:103C0000400E00E0501EDD244C145D040CF08EC00C
:103C100000E0088300E010E020E030E00D831E8328
:103C20002F83388701E00A938E010F5F1F4F1A938D
:103C30000A938E01085F1F4F1A930A9351E0BE0149
:103C40006A5F7F4F252F4A2D50E00AE410E00E9462
:103C50000B3BF401E00FF11F428D042D400F522F5A
:103C6000242E352E4A2D50E00AE410E00E940B3B32
:103C7000F401E00FF11F208D318D532D422D840171
:103C80000E945C0E402F412B422B432B11F46620E7
:103C900009F092C00881055029F00A9559F00A955B
:103CA000E1F0A7CF2981FE0139968C01E00FF11FC9
:103CB0002083A1CF2981FE0139968C01E00FF11FED
:103CC00020838F5F9F4FAF4FBF4F2A81FE013996F0
:103CD0008C01E00FF11F20838ECF2981FE013996E0
:103CE0008C01E00FF11F20838F5F9F4FAF4FBF4FBD
:103CF0002A81FE0139968C01E00FF11F20838F5F2E
:103D00009F4FAF4FBF4F2B81FE0139968C01E00FC3
:103D1000F11F20838F5F9F4FAF4FBF4F2C81FE015C
:103D200039968C01E00FF11F208365CF4A2D50E0BA
:103D30000AE410E00E940B3BF401E00FF11F838FB7
:103D4000948FA58FB68F00E010E020E030E02801CE
:103D500039014A2D50E00AE410E00E940B3BF401C7
:103D6000E00FF11F478E50A261A272A225E04A2DFA
:103D700050E00AE410E00E940B3BF401E00FF11F59
:103D8000EB5AFF4F2083AC019E01275F3F4FBA01E2
:103D90004A2D50E00AE410E00E940B3B800E911E79
:103DA00003E2800E00E0901E8401AB010E94673C9C
:103DB00000E010E020E030E0EB96EEE00C943A3CBE
:103DC0000E942B3C18012A013B01422F50E00AE4DB
:103DD00010E00E940B3BF101E00FF11F478D50A155
:103DE00061A172A1440D551D661D771D433300E08E
:103DF000500700E0600700E0700710F00FEF68C0A8
:103E0000422F50E00AE410E00E940B3BF101E00F6A
:103E1000F11F838D948DA58DB68D422F50E00AE45D
:103E200010E00E940B3BF101E00FF11F478D50A104
:103E300061A172A1440D551D661D771D841795075C
:103E4000A607B70710F40FEF43C0422F50E00AE473
:103E500010E00E940B3BF101E00FF11F878D90A154
:103E600088246C857D8516C0422F50E00AE410E05E
:103E70000E940B3BF101E00FF11F8C019924080D0A
:103E8000191DE00FF11F03A19924FB01E80DF91D95
:103E9000008383949924AA24BB2484149504A60443
:103EA000B70410F3422F50E00AE410E00E940B3BED
:103EB000200E311EF101078D10A121A132A1040DA8
:103EC000151D261D371D078F10A321A332A300E067
:103ED000EEE00C943C3C0E942B3C18012A013B0173
:103EE000422F50E00AE410E00E940B3BF101E00F8A
:103EF000F11F478D50A161A172A1440D551D661D92
:103F0000771D433300E0500700E0600700E07007D2
:103F100010F00FEF43C0422F50E00AE410E00E947F
:103F20000B3BF101E00FF11F878D90A188246C8578
:103F30007D8516C09924FB01E80DF91D3081422FC3
:103F400050E00AE410E00E940B3BF101E00FF11F8A
:103F50008C019924080D191DE00FF11F33A38394E0
:103F60009924AA24BB2484149504A604B70410F34E
:103F7000422F50E00AE410E00E940B3B200E311E5D
:103F8000F101078D10A121A132A1040D151D261DDF
:103F9000371D078F10A321A332A300E0EEE00C949D
:103FA0003C3C0E942F3C2197C801B22FA32F2A012D
:103FB000662EAE013A2F2B2F8C0189D1702E7720DF
:103FC00029F4A13019F428818C0144D0772051F5CF
:103FD000A23041F5488150E00AE410E00E940B3B1A
:103FE000FC01E00FF11FEA5AFF4F008111810E948E
:103FF00078399801488150E00AE410E00E940B3BB8
:10400000FC01E00FF11FEA5AFF4F2083318325E8BE
:10401000488150E00AE410E00E940B3BFC01E00FF5
:10402000F11F228B09851A852B853C853A932A93AB
:104030001A930A93662DA2013B2F2A2F8C0188D256
:10404000702E772011F00FEF01C000E02196ECE018
:104050000C94403C0E942F3CD801822F70E060E01D
:1040600040E050E030E0282F8D0145D04424552415
:104070006624772416C020E0482F50E00AE410E0C0
:104080000E940B3BFD01E00FF11F8201E00FF11FC9
:1040900023A301E0400E00E0501E00E0601E00E09F
:1040A000701E02E3401600E0500600E0600600E0EB
:1040B000700608F320E0482F50E00AE410E00E9468
:1040C0000B3BFD01E00FF11F218B00E010E020E031
:1040D00030E028013901482F50E00AE410E00E9446
:1040E0000B3BA00FB11FFD01448A558A668A778A6F
:1040F000E8E00C94403C0E942F3CD801822F632EB4
:104100002A01762E972F923011F0933041F500E07E
:1041100010E020E030E03A932A931A930A9308E1E2
:1041200016EF20E030E03A932A931A930A9320E4A2
:104130003CE1482F50E060E070E08D010E94CC38F7
:104140009801482F50E00AE410E00E940B3BFD016B
:10415000E00FF11FEA5AFF4F208331831DC0482F23
:1041600050E00AE410E00E940B3BFD01E00FF11F5C
:10417000EA5AFF4F008111810E9478399801482F37
:1041800050E00AE410E00E940B3BFD01E00FF11F3C
:10419000EA5AFF4F20833183482F50E00AE410E0B1
:1041A0000E940B3BFD01E00FF11F608A482F50E099
:1041B0000AE410E00E940B3BFD01E00FF11F408E6E
:1041C000518E482F50E00AE410E00E940B3BFD01A5
:1041D000E00FF11F728E482F50E00AE410E00E94B9
:1041E0000B3BFD01E00FF11F928B20E0482F50E0C8
:1041F0000AE410E00E940B3BFD01E00FF11F238B4E
:1042000000E010E020E030E028013901482F50E0C4
:104210000AE410E00E940B3BFD01E00FF11F438E0A
:10422000548E658E768E00E010E020E030E02801AC
:104230003901482F50E00AE410E00E940B3BFD01D9
:10424000E00FF11F478E50A261A272A220E0482F1A
:1042500050E00AE410E00E940B3BFD01E00FF11F6B
:10426000EB5AFF4F208320E030E0482F50E00AE473
:1042700010E00E940B3BA00FB11FA85ABF4F2D9317
:104280003C9300E0E8E00C94403CB801222E9A01F7
:1042900040E001C043954423C1F450E00AE410E03B
:1042A0000E940B3BFB01E00FF11F0289002391F7F5
:1042B000F901408350E00AE410E00E940B3B600FDC
:1042C000711FFB01218A00E008950FEF08951D0181
:1042D000B801DA0140E001C04395442321F550E0E4
:1042E0000AE410E00E940B3BFB01E00FF11F028982
:1042F000002391F350E00AE410E00E940B3BFB0125
:10430000E00FF11F0089021739F750E00AE410E0CE
:104310000E940B3BFB01E00FF11F01890317E1F63F
:104320004C9300E001C00FEFD10108950E94333C8F
:10433000B801222E9A01422D50E00AE410E00E94BA
:104340000B3BFB01E00FF11F838D948DA58DB68D86
:10435000892B8A2B8B2B51F440E050E060E070E019
:10436000F901408351836283738323C0422D50E05F
:104370000AE410E00E940B3BFB01E00FF11F838D6C
:10438000948DA58DB68D422D50E00AE410E00E9478
:104390000B3B600F711FFB01478D50A161A172A102
:1043A000841B950BA60BB70BF90180839183A28325
:1043B000B38300E0E4E00C94443C0E94333CF801F9
:1043C000CA01DB01833300E0900700E0A00700E0B2
:1043D000B00710F00FEF0DC0422F50E00AE410E0DC
:1043E0000E940B3BE00FF11F838F948FA58FB68F38
:1043F00000E0E4E00C94443C0E94333C2C97D8014C
:1044000060E000E010E000E010E0FD01E65AFF4F40
:104410000081002331F0FD01E65AFF4F0081063094
:1044200011F40FEF91C02130E9F41696ED91FC9153
:10443000179740815181042F052B11F40FEF84C091
:10444000FD016281738125E030E08A01A9010E94AB
:104450000B3B600F711FFB0100811181F801008986
:10446000118952C080E090E0FD0106811781F801BA
:1044700042815381FD0100851185F801228133813C
:10448000042F052B29F40FEF5FC04F5F5F4F01969C
:104490002417350720F1FD012280338005E010E06C
:1044A0000E940B3B200E311EF1010281043010F4FA
:1044B0000FEF4AC0FD012280338005E010E00E942A
:1044C0000B3B200E311EF10100811181F80106899C
:1044D0001789F801008118890117B9F661E0662390
:1044E00011F40FEF31C0FD016281738125E030E0EE
:1044F0008A01A9010E940B3B600F711FFB01008123
:104500001181F80102851385F8010081118108836A
:10451000198300E00A8308E00B8300E00CC0FE0171
:10452000709610E0E00FF11F2181FE0110E0E00F16
:10453000F11F24830395083090F39E01AA5FBE4FBC
:104540000D911C910E94BC062C96EDE00C94443C0D
:104550000E94333C2997D801822F813031F4ED91AC
:10456000FC9111970081088301C0388300E809831A
:10457000042F0A83452F4B836C834D855E856F85A1
:1045800078898A010D838A01012F0E839B01022FF6
:104590000F83472F4887FE0109E010E00E941F3C6F
:1045A000282F8D0129DF2996E8E00C94443C0E94D5
:1045B000293C2E97D8012901DD2400E010E003E01A
:1045C000C02E00E010E003E0C02EFD01068117813F
:1045D000F80140815181FD0100851185F80120819C
:1045E000318160E0042F052B21F436C063954F5FC5
:1045F0005F4F2417350780F1FD012280338005E0ED
:1046000010E00E940B3B200E311EF10102810230AE
:1046100010F40FEF85C3FD012280338005E010E028
:104620000E940B3B200E311EF10100811181F80127
:1046300002851385F8010080118022803380F20109
:1046400080809180AA24BB24081419042A043B0406
:1046500069F6CC24C394D62E03E0C01609F058C0E6
:10466000FD0106811781F80142815381FD0100851A
:104670001185F8012281338160E0042F052B21F49C
:1046800047C063954F5F5F4F2417350708F440C05C
:10469000FD012280338005E010E00E940B3B200EDC
:1046A000311EF1010281043010F40FEF39C3FD0116
:1046B0002280338005E010E00E940B3B200E311E6B
:1046C000F10100811181F80100891189F801008050
:1046D000118022803380F20180809180AA24BB2443
:1046E000081419042A043B0461F6FD012281338178
:1046F00005E010E00E940B3B200F311FF901008103
:104700001181F8010689178922E0C22EF801D080B4
:1047100003E0C01611F40FEF03C3F2010381083068
:1047200089F000E010E020E038E03A932A931A93F1
:104730000A9360E040E050E03C2D2D2D8D0131DCEE
:104740000FEFEEC2F201048102950F700695005042
:10475000A1F00A9509F4E8C20A9509F4CAC50A95B8
:1047600011F40C94FC2B0A9511F40C940B2F0A9560
:1047700011F40C94A02F0C942F3201E0C01609F014
:104780004FC1AE013C2D2D2D8D01A1DD002379F40B
:10479000488150E00AE410E00E940B3BFD01E00F6D
:1047A000F11F0289023011F001E001C000E0002396
:1047B00089F001E210E020E038E03A932A931A935E
:1047C0000A9360E040E050E03C2D2D2D8D01E9DBA7
:1047D0000FEFA6C2488150E00AE410E00E940B3BB4
:1047E000FD01E00FF11FEA5AFF4F008111810F3FD9
:1047F0002FEF120709F444C0488150E00AE410E0AA
:104800000E940B3BFD01E00FF11FEA5AFF4F0081B0
:1048100011810E9478399801488150E00AE410E043
:104820000E940B3BFD01E00FF11FEA5AFF4F20836E
:10483000318300E010E020E030E03A932A931A93AD
:104840000A9308E116EF20E030E03A932A931A9396
:104850000A9320E43CE1488550E060E070E08D017F
:104860000E94CC389801488150E00AE410E00E9490
:104870000B3BFD01E00FF11FEA5AFF4F208331830C
:10488000488150E00AE410E00E940B3BFD01E00F7C
:10489000F11F808D918D488150E00AE410E00E9464
:1048A0000B3BFD01E00FF11F628C488150E00AE4F0
:1048B00010E00E940B3BFD01E00FF11F0389F201A4
:1048C000148114FB10E010F9011781F000E010E0F2
:1048D00023E035E03A932A931A930A93662DAC01AC
:1048E0003C2D2D2D8D015DDB0FEF1AC207E010E08E
:1048F000F2012481269530E027703070021B130BE3
:10490000212F220F220B322F09831A832B833C8302
:1049100082010B5F1F4F1A930A934B815C816D815B
:104920007E812A818D01D7DA002381F000E010E03A
:1049300020E038E03A932A931A930A93662DAC014B
:104940003C2D2D2D8D012DDB0FEFEAC1ED91FC915A
:10495000119700810D83488150E00AE410E00E9425
:104960000B3BFD01E00FF11F03890295007F006200
:104970000E8301E010E020E030E00BC060E0FE01BB
:104980003596A801E40FF51F61830F5F1F4F2F4F6E
:104990003F4F083040E0140740E0240740E0340770
:1049A00068F3FE01359609E010E00E941F3C2C2DB3
:1049B0008D0122DD488150E00AE410E00E940B3BAB
:1049C000FD01E00FF11F0389002311F421E001C074
:1049D00020E0488150E00AE410E00E940B3BFD011A
:1049E000E00FF11F238BF201048100FF98C12881A1
:1049F0008D010E94ED1C402F412B422B432B61F077
:104A00003A932A931A930A93662DAC013C2D2D2DCF
:104A10008D01C7DA0FEF84C128818D011BDB7FC1B7
:104A2000AE013C2D2D2D8D0152DC002379F44881FF
:104A300050E00AE410E00E940B3BFD01E00FF11F83
:104A40000289033011F001E001C000E0002389F089
:104A500001E210E020E038E03A932A931A930A9397
:104A600060E040E050E03C2D2D2D8D019ADA0FEFF3
:104A700057C1488150E00AE410E00E940B3BFD0161
:104A8000E00FF11FEA5AFF4F008111810F3F2FEF16
:104A9000120709F444C0488150E00AE410E00E9483
:104AA0000B3BFD01E00FF11FEA5AFF4F008111811E
:104AB0000E9478399801488150E00AE410E00E9491
:104AC0000B3BFD01E00FF11FEA5AFF4F20833183BA
:104AD00000E010E020E030E03A932A931A930A9322
:104AE00008E116EF20E030E03A932A931A930A93F4
:104AF00020E43CE1488550E060E070E08D010E94D8
:104B0000CC389801488150E00AE410E00E940B3B49
:104B1000FD01E00FF11FEA5AFF4F208331834881E6
:104B200050E00AE410E00E940B3BFD01E00FF11F92
:104B3000808D918D488150E00AE410E00E940B3B8B
:104B4000FD01E00FF11F628C488150E00AE410E0A3
:104B50000E940B3BFD01E00FF11F0389F20114815C
:104B600014FB10E010F9011781F000E010E023E0E1
:104B700035E03A932A931A930A93662DAC013C2DA3
:104B80002D2D8D010EDA0FEFCBC007E010E0F20102
:104B90002481269530E027703070021B130B212FE3
:104BA000220F220B322F09831A832B833C8382012D
:104BB0000B5F1F4F1A930A934B815C816D817E813D
:104BC0002A818D0188D9002381F000E010E020E0E7
:104BD00038E03A932A931A930A93662DAC013C2D40
:104BE0002D2D8D01DED90FEF9BC0488150E00AE4E6
:104BF00010E00E940B3BFD01E00FF11F0389002331
:104C000011F421E001C020E0488150E00AE410E006
:104C10000E940B3BFD01E00FF11F238BF201048189
:104C200000FF4DC0488150E00AE410E00E940B3BB9
:104C3000FD01E00FF11FEA5AFF4F008111810E9430
:104C400078399801488150E00AE410E00E940B3B5B
:104C5000FD01E00FF11FEA5AFF4F2083318321E06D
:104C6000488150E00AE410E00E940B3BFD01E00F98
:104C7000F11F228B488150E00AE410E00E940B3BB8
:104C8000FD01E00FF11FE85AFF4F2081318100E064
:104C900010E02017310709F442C02D2D8D01B80115
:104CA000488150E00AE410E00E940B3BA00FB11FC6
:104CB000A85ABF4FED91FC918B01099530C0DD8260
:104CC000488150E00AE410E00E940B3BFD01E00F38
:104CD000F11F03890295007F00660E8301E010E05A
:104CE00020E030E00BC060E0FE013596A801E40F43
:104CF000F51F61830F5F1F4F2F4F3F4F083040E07C
:104D0000140740E0240740E0340768F3FE013596BD
:104D100009E010E00E941F3C2C2D8D016DDB00E0AE
:104D20002E96EEE00C943A3C01E0C01609F005C165
:104D3000F201968180E0F201058110E0802B912B39
:104D4000F2016780AE013C2D2D2D8D01C0DA0023CC
:104D500081F401E210E020E038E03A932A931A93BC
:104D60000A93662DAC013C2D2D2D8D011AD90FEF24
:104D7000D7CFAE012C2D8D0188DA002381F001E21E
:104D800010E020E038E03A932A931A930A93662DB4
:104D9000AC013C2D2D2D8D0104D90FEFC1CF72E058
:104DA000662DAC013D2D28818D01A5D9F20104812C
:104DB00001FF6CC004E010E0F201248126952695E5
:104DC00030E023703070021B130B212F220F220BB7
:104DD000322F09831A832B833C8389809A80AB808E
:104DE000BC80488150E00AE410E00E940B3BFD01CA
:104DF000E00FF11F838E948EA58EB68E08E0400ED4
:104E000000E0501E5A924A924B815C816D817E81F6
:104E10002A818D0160D8002381F000E010E020E0BD
:104E200038E03A932A931A930A93662DAC013C2DED
:104E30002D2D8D01B6D80FEF73CF28818D010E94E3
:104E4000ED1C402F412B422B432B61F03A932A93C8
:104E50001A930A93662DAC013C2D2D2D8D01A1D8FE
:104E60000FEF5ECF28818D01F5D8ED91FC91119760
:104E700000810D8300E60E83082F0F83892F88871A
:104E8000698604E010E020E030E045C0F2010481D2
:104E900000FFEBCFF2010085F201118520E030E048
:104EA000F201628570E040E050E0040F151F261FFC
:104EB000371FF2014385742F60E050E040E0040F9B
:104EC000151F261F371F09831A832B833C834981B3
:104ED0005A816B817C812D2D8D016FDA002329F29F
:104EE00000E010E020E038E03A932A931A930A9306
:104EF000662DAC013C2D2D2D8D0153D80FEF10CF19
:104F000060E0FE013596A801E40FF51F61830F5F95
:104F10001F4F2F4F3F4F083040E0140740E0240759
:104F200040E0340768F3FE01359609E010E00E9486
:104F30001F3C2C2D8D0160DAF2CEAE013C2D2D2DC3
:104F40008D01C5D9002379F4488150E00AE410E0CE
:104F50000E940B3BFD01E00FF11F0289023011F0AE
:104F600001E001C000E0002391F001E210E020E048
:104F700038E03A932A931A930A9360E040E050E0B5
:104F80003C2D2D2D8D010E94D11F0FEFC9CE4881E0
:104F900050E00AE410E00E940B3BFD01E00FF11F1E
:104FA000EA5AFF4F008111810F3F2FEF120709F4DA
:104FB00044C0488150E00AE410E00E940B3BFD0130
:104FC000E00FF11FEA5AFF4F008111810E947839EA
:104FD0009801488150E00AE410E00E940B3BFD017B
:104FE000E00FF11FEA5AFF4F2083318300E010E009
:104FF00020E030E03A932A931A930A9308E116EFDF
:1050000020E030E03A932A931A930A9320E43CE19B
:10501000488550E060E070E08D010E94CC38980136
:10502000488150E00AE410E00E940B3BFD01E00FD4
:10503000F11FEA5AFF4F20833183488150E00AE490
:1050400010E00E940B3BFD01E00FF11F808D918D60
:10505000488150E00AE410E00E940B3BFD01E00FA4
:10506000F11F628C488150E00AE410E00E940B3B83
:10507000FD01E00FF11F0389F201148114FB10E020
:1050800010F9011789F000E010E023E035E03A93D1
:105090002A931A930A93662DAC013C2D2D2D8D0178
:1050A0000E94D11F0FEF3CCEAE014F5F5F4F2881B2
:1050B0008D013CD909811A812B813C81012B022B66
:1050C000032B09F04DC0488150E00AE410E00E9433
:1050D0000B3BFD01E00FF11FEA5AFF4F00811181E8
:1050E0000E9478399801488150E00AE410E00E945B
:1050F0000B3BFD01E00FF11FEA5AFF4F2083318384
:1051000021E0488150E00AE410E00E940B3BFD01E1
:10511000E00FF11F228B488150E00AE410E00E946A
:105120000B3BFD01E00FF11FE85AFF4F2081318159
:1051300000E010E02017310789F02D2D8D01B80116
:10514000488150E00AE410E00E940B3BA00FB11F21
:10515000A85ABF4FED91FC918B01099500E0E0CD7D
:1051600009811A812B813C81083040E0140740E01E
:10517000240740E0340708F448C0488150E00AE4BE
:1051800010E00E940B3BFD01E00FF11F038900239B
:1051900011F421E001C020E0488150E00AE410E071
:1051A0000E940B3BFD01E00FF11F238BDD82488144
:1051B00050E00AE410E00E940B3BFD01E00FF11FFC
:1051C00003890295007F0E838E01095F1F4F1A939A
:1051D0000A9347E050E060E070E02A818D010E9470
:1051E000E01E002309F47BC000E010E020E038E07E
:1051F0003A932A931A930A93662DAC013C2D2D2DD8
:105200008D010E94D11F0FEF8BCD488150E00AE441
:1052100010E00E940B3BFD01E00FF11F038900230A
:1052200011F421E001C020E0488150E00AE410E0E0
:105230000E940B3BFD01E00FF11F238BDD824881B3
:1052400050E00AE410E00E940B3BFD01E00FF11F6B
:10525000038910E1019F402D57E00981501B550F34
:10526000452B41604E838E01095F1F4F1A930A93AD
:105270004B815C816D817E812A818D010E94E01EBF
:10528000002389F000E010E020E038E03A932A9310
:105290001A930A93662DAC013C2D2D2D8D010E9491
:1052A000D11F0FEF3DCD09811A812B813C810F5F0A
:1052B0001F4F2F4F3F4F0BC060E0FE013596A801F6
:1052C000E40FF51F61830F5F1F4F2F4F3F4F0830D3
:1052D00040E0140740E0240740E0340768F3FE0193
:1052E000359609E010E00E941F3C2C2D8D0184D8DA
:1052F00016CD01E0C01609F0F1C0F201968180E000
:10530000F201058110E0802B912BF2016780AE0144
:105310003C2D2D2D8D010E946721002389F401E28F
:1053200010E020E038E03A932A931A930A93662D0E
:10533000AC013C2D2D2D8D010E94D11F0FEFF0CC23
:10534000AE012C2D8D010E944521002389F001E240
:1053500010E020E038E03A932A931A930A93662DDE
:10536000AC013C2D2D2D8D010E94D11F0FEFD8CC0B
:1053700073E0662DAC013D2D28818D010E947B20BC
:1053800028818D010E946D1D402F412B422B432B04
:1053900069F03A932A931A930A93662DAC013C2D37
:1053A0002D2D8D010E94D11F0FEFBACCAE014F5FA2
:1053B0005F4F28818D010E949621DD8209811A812B
:1053C0002B813C81053040E0140740E0240740E099
:1053D000340760F101E40E83082F0F83892F88873B
:1053E000698609810A8705E010E020E030E00BC003
:1053F00060E0FE013596A801E40FF51F61830F5FA1
:105400001F4F2F4F3F4F083040E0140740E0240764
:1054100040E0340768F3FE01359609E010E00E9491
:105420001F3C2C2D8D010E94FC2179CC44E0098188
:10543000401B440F440F43644E83082F0F838C019D
:10544000012F088769868E01065F1F4F1A930A9302
:105450004B815C816D817E812A818D010E94E01EDD
:10546000002389F000E010E020E038E03A932A932E
:105470001A930A93662DAC013C2D2D2D8D010E94AF
:10548000D11F0FEF4DCC09811A812B813C810C5F1C
:105490001F4F2F4F3F4F0BC060E0FE013596A80114
:1054A000E40FF51F61830F5F1F4F2F4F3F4F0830F1
:1054B00040E0140740E0240740E0340768F3FE01B1
:1054C000359609E010E00E941F3C2C2D8D010E94B2
:1054D000FC2128818D010E942A2021CCAE013C2D87
:1054E0002D2D8D010E946721002379F4488150E021
:1054F0000AE410E00E940B3BFD01E00FF11F02895E
:10550000033011F001E001C000E0002391F001E25E
:1055100010E020E038E03A932A931A930A9360E06F
:1055200040E050E03C2D2D2D8D010E94D11F0FEF4A
:10553000F7CB488150E00AE410E00E940B3BFD01EC
:10554000E00FF11FEA5AFF4F008111810F3F2FEF4B
:10555000120709F444C0488150E00AE410E00E94B8
:105560000B3BFD01E00FF11FEA5AFF4F0081118153
:105570000E9478399801488150E00AE410E00E94C6
:105580000B3BFD01E00FF11FEA5AFF4F20833183EF
:1055900000E010E020E030E03A932A931A930A9357
:1055A00008E116EF20E030E03A932A931A930A9329
:1055B00020E43CE1488550E060E070E08D010E940D
:1055C000CC389801488150E00AE410E00E940B3B7F
:1055D000FD01E00FF11FEA5AFF4F2083318348811C
:1055E00050E00AE410E00E940B3BFD01E00FF11FC8
:1055F000808D918D488150E00AE410E00E940B3BC1
:10560000FD01E00FF11F628CF201048101FF92C0E5
:1056100004E010E0F20124812695269530E0237005
:105620003070021B130B212F220F220B322F098304
:105630001A832B833C8308E0400E00E0501E5A92F0
:105640004A924B815C816D817E812A818D010E940D
:105650006B1F002389F000E010E020E038E03A936F
:105660002A931A930A93662DAC013C2D2D2D8D01A2
:105670000E94D11F0FEF54CB488150E00AE410E0A4
:105680000E940B3BFD01E00FF11FEA5AFF4F008122
:1056900011810E9478399801488150E00AE410E0B5
:1056A0000E940B3BFD01E00FF11FEA5AFF4F2083E0
:1056B000318349805A806B807C80488150E00AE4C5
:1056C00010E00E940B3BFD01E00FF11F438E548E52
:1056D000658E768E21E0488150E00AE410E00E9459
:1056E0000B3BFD01E00FF11F228B488150E00AE4E3
:1056F00010E00E940B3BFD01E00FF11FE85AFF4F45
:105700002081318100E010E02017310789F02D2D34
:105710008D01B801488150E00AE410E00E940B3B83
:10572000A00FB11FA85ABF4FED91FC918B010995B5
:1057300000E0F6CAF201048100FF38C0F2010085E2
:10574000F201118520E030E0F201628570E040E076
:1057500050E0040F151F261F371FF2014385742FD9
:1057600060E050E040E0040F151F261F371F09833B
:105770001A832B833C8349815A816B817C812881E8
:105780008D010E94DD21002389F000E010E020E07F
:1057900038E03A932A931A930A93662DAC013C2D74
:1057A0002D2D8D010E94D11F0FEFBACADD8200E6B8
:1057B0000E8301E010E020E030E00BC060E0FE016D
:1057C0003596A801E40FF51F61830F5F1F4F2F4F20
:1057D0003F4F083040E0140740E0240740E0340722
:1057E00068F3FE01359609E010E00E941F3C2C2D65
:1057F0008D010E94FC2193CA01E0C01609F07EC110
:10580000AE013C2D2D2D8D010E946721002379F4DE
:10581000488150E00AE410E00E940B3BFD01E00FDC
:10582000F11F0289033011F001E001C000E0002304
:1058300091F001E210E020E038E03A932A931A93C5
:105840000A9360E040E050E03C2D2D2D8D010E9438
:10585000D11F0FEF65CA488150E00AE410E00E94B2
:105860000B3BFD01E00FF11FEA5AFF4F0081118150
:105870000F3F2FEF120709F444C0488150E00AE4BB
:1058800010E00E940B3BFD01E00FF11FEA5AFF4FB1
:10589000008111810E9478399801488150E00AE422
:1058A00010E00E940B3BFD01E00FF11FEA5AFF4F91
:1058B0002083318300E010E020E030E03A932A9327
:1058C0001A930A9308E116EF20E030E03A932A9306
:1058D0001A930A9320E43CE1488550E060E070E0D0
:1058E0008D010E94CC389801488150E00AE410E014
:1058F0000E940B3BFD01E00FF11FEA5AFF4F20838E
:105900003183488150E00AE410E00E940B3BFD0126
:10591000E00FF11F808D918D488150E00AE410E086
:105920000E940B3BFD01E00FF11F628C488150E0AB
:105930000AE410E00E940B3BFD01E00FF11F038918
:10594000F201148114FB10E010F9011789F000E056
:1059500010E023E035E03A932A931A930A93662DD8
:10596000AC013C2D2D2D8D010E94D11F0FEFD8C908
:10597000AE014F5F5F4F28818D010E949621098102
:105980001A812B813C81083040E0140740E0240755
:1059900040E0340708F452C0DD82488150E00AE458
:1059A00010E00E940B3BFD01E00FF11F03890295FF
:1059B000007F0E838E01095F1F4F1A930A9347E001
:1059C00050E060E070E02A818D010E94E01E00231B
:1059D00089F000E010E020E038E03A932A931A932F
:1059E0000A93662DAC013C2D2D2D8D010E94D11FF7
:1059F0000FEF96C9488150E00AE410E00E940B3B8B
:105A0000FD01E00FF11F0389002311F421E001C023
:105A100020E0488150E00AE410E00E940B3BFD01C9
:105A2000E00FF11F238BFE01359609E010E00E9484
:105A30001F3C2C2D8D010E94FC2171C9DD82488103
:105A400050E00AE410E00E940B3BFD01E00FF11F63
:105A5000038910E1019F402D57E00981501B550F2C
:105A6000452B41604E838E01095F1F4F1A930A93A5
:105A70004B815C816D817E812A818D010E94E01EB7
:105A8000002389F000E010E020E038E03A932A9308
:105A90001A930A93662DAC013C2D2D2D8D010E9489
:105AA000D11F0FEF3DC909811A812B813C810F5F06
:105AB0001F4F2F4F3F4F0BC060E0FE013596A801EE
:105AC000E40FF51F61830F5F1F4F2F4F3F4F0830CB
:105AD00040E0140740E0240740E0340768F3FE018B
